:020000040800F2
:10000000D007002029020008C31500083714000893
:10001000C11500088B0600088517000800000000C5
:10002000000000000000000000000000D9160008D9
:100030000907000800000000C5150008DB160008CD
:10004000430200084302000843020008430200087C
:10005000430200084302000843020008430200086C
:1000600043020008430200080B070008430200088F
:10007000430200084302000843020008430200084C
:10008000430200084302000843020008430200083C
:100090004302000843020008430200081107000859
:1000A000430200084302000843020008430200081C
:1000B000430200084302000843020008430200080C
:1000C00043020008430200084302000843020008FC
:1000D00043020008430200084302000843020008EC
:1000E00043020008430200084302000843020008DC
:1000F00043020008430200084302000843020008CC
:1001000043020008430200084302000843020008BB
:1001100043020008430200084302000843020008AB
:10012000430200084302000843020008430200089B
:10013000430200084302000843020008430200088B
:10014000430200084302000843020008430200087B
:10015000430200084302000843020008430200086B
:10016000430200084302000843020008430200085B
:100170004302000843020008430200080000000098
:10018000430200084302000800F002F800F03CF8C7
:100190000AA090E8000C82448344AAF10107DA45E2
:1001A00001D100F031F8AFF2090EBAE80F0013F0F8
:1001B000010F18BFFB1A43F0010318473418000061
:1001C00054180000103A24BF78C878C1FAD85207F2
:1001D00024BF30C830C144BF04680C6070470000C1
:1001E0000023002400250026103A28BF78C1FBD840
:1001F000520728BF30C148BF0B6070471FB501F0E0
:10020000E5FB1FBD10B510BD00F0CFF81146FFF79C
:10021000F5FF01F0BFFB00F0EDF803B4FFF7F2FFCC
:1002200003BC00F0F5F80000094880470948004782
:10023000FEE7FEE7FEE7FEE7FEE7FEE7FEE7FEE796
:10024000FEE7FEE704480549054A064B70470000F3
:100250007517000889010008D0010020D007002090
:10026000D0030020D003002053EA020C00F0698084
:100270002DE9F04B4FF00006002B1FBFB3FA83F5BA
:1002800003FA05F424FA05F65E4012BF1643B2FAEB
:1002900082F502FA05F4C5F120051EBF22FA05FC1D
:1002A00044EA0C04203556EA044C4FEA144418BFC3
:1002B000641C4FF000084FF00009904271EB030CF2
:1002C00039D3002919BFB1FA81F701FA07F6B0FA5C
:1002D00080F700FA07F6C7F120071EBF20FA07FCD7
:1002E00046EA0C062037B6FBF4FCA7EB0507103FE7
:1002F00007F01F0BCBF120060CFA0BFB2CFA06F6CD
:1003000044BFB3460026202FA4BF5E464FF0000B2B
:100310005BEA060C08BF4FF0010B19EB0B09ABFBB6
:10032000027C48EB0608C01B06FB02CC0BFB03CC8F
:1003300071EB0C01C1E70B46024641464846BDE859
:10034000F08B13B54FF000004FF00001AFF30080C9
:10035000BDE81C4070474FF0000200B513469446BC
:100360009646203922BFA0E80C50A0E80C50B1F10D
:100370002001BFF4F7AF090728BFA0E80C5048BF21
:100380000CC05DF804EB890028BF40F8042B08BFBF
:10039000704748BF20F8022B11F0804F18BF00F8BB
:1003A000012B7047704770477047754600F02CF876
:1003B000AE4605006946534620F00700854618B052
:1003C00020B5FFF73FFFBDE820404FF000064FF09B
:1003D00000074FF000084FF0000B21F00701AC467A
:1003E000ACE8C009ACE8C009ACE8C009ACE8C00999
:1003F0008D46704710B50446AFF300802046BDE837
:100400001040FFF70ABF000000487047700100204D
:1004100001491820ABBEFEE726000200704700002D
:1004200001221021014800F0FBBA00000000024048
:1004300000221021014800F0F3BA00000000024041
:100440007047000001221146014800F0E9BA00009F
:100450000004024000220121014800F0E1BA00003E
:1004600000040240704730B504464FF47A7502E04C
:10047000284600F004F8641EA4B2F9D230BD70B56D
:100480004FF0E02400226569A8214843A169A369CF
:100490008B42FCD002D2A1EB030102E0A5EB0306E4
:1004A00031440A4419468242F1D370BD10B5FFF7BA
:1004B000C7FFFFF7D7FF01F077F9044601F0FCF919
:1004C000204310BD2DE9FC410746002016460D468D
:1004D00000900190FFF7ACFF922000F0BDF80622DB
:1004E0006946122000F09AF8FFF79AFF9DF8010084
:1004F0009DF80010000200B2084300EE100A464CBE
:10050000B8EEC00AD4ED000A20EE200A85ED000AFC
:100510009DF803009DF80210000200B2084300EEAF
:10052000100AD4ED000AB8EEC00A20EE200A85EDCC
:10053000010A9DF805009DF80410000200B208436E
:1005400000EE100AB8EEC00A20EE200A85ED020A7D
:10055000FFF780FF08226946002000F05FF8FFF7F0
:1005600071FF9DF800000F2830D19DF803009DF821
:100570000210000200B2084300EE100AD4ED010A96
:10058000B8EEC00A20EE200A87ED000A9DF80500AB
:100590009DF80410000200B2084300EE100AD4EDEA
:1005A000010AB8EEC00A20EE200A87ED010A9DF884
:1005B00007009DF80610000200B2084300EE100A82
:1005C000B8EEC00A20EE200A87ED020AFFF730FFDE
:1005D000A22000F041F802226946222000F01EF815
:1005E000FFF71EFF9DF800009DF80110C00040EAD3
:1005F0005110B0F5806F01DBA0F5006000EE100A2D
:10060000B4EE001AF8EEC00AB3EE070A00EE810A53
:1006100086ED000ABDE8FC811400002070B5144688
:100620000D4640F0800000F017F806E0552000F07D
:1006300013F8641E05F8010BE4B2002CF6D170BD6E
:1006400010B50C4640F0800000F006F8552000F090
:1006500003F8207010BD000001B582B04FF47A702D
:100660000090012301AA02A9024800F0DFFD9DF8D5
:1006700004000EBD5800002010B50C46FFF7ECFF3B
:100680002046BDE81040FFF7E7BFFEE701681823EA
:10069000CAB2103AB2FBF3F2054B6FF30901032A19
:1006A0009B5CC36500D9091D816508467047000041
:1006B000D619000810B5014600208B698A6A4FF0F0
:1006C000C07453B1B3F5005F15D072B1012A0CD0DC
:1006D000022A0AD0032A09D104E01AB1012A06D05D
:1006E000022A03D1C96AC90100D5012010BDC96A17
:1006F000A142FAD010BD002AF7D0012AF2D0022A76
:10070000F3D0032AF3D010BD7047102000F084B856
:10071000202000F081B872B6FEE700002DE9F0411C
:10072000044600F083F906465CB1022084F83500E7
:10073000002584F834502068016821F0010101602F
:100740000DE00120BDE8F08100F070F9801B052864
:1007500005D920206065032084F83500F2E7206881
:100760000068C007F0D12268116820480140D4E930
:1007700001031843D4E9033633431843636918432C
:10078000A3691843E3691843236A18430843616A5D
:10079000042903D1D4E90B131943084310602068DE
:1007A0004069666A20F0070130460E43012704289D
:1007B0000CD1A06A0643E06A40B12046FFF77AFFF9
:1007C00020B14020606584F83570BAE72068466142
:1007D0002046FFF75BFF94F85C203F219140816049
:1007E000656584F835700020ACE700003F8010F0AC
:1007F00070B5044600F01AF90546601C02D00448A2
:100800000078044400F012F9401BA042FAD370BDF6
:100810000400002070470000044910B50A68024235
:1008200002D00860FFF7F6FF10BD0000143C014045
:100830002DE9F84FDFF8BCA10022012503264FF077
:100840000F090AF1040BAAF1040E00BF0B6805FAA8
:1008500002F42340A34270D10F7907F00307012F60
:1008600001D0022F16D187684FEA420806FA08FC29
:1008700027EA0C07D1F80CC00CFA08FC4CEA070C6C
:10088000C0F808C04768A7430C79C4F3001494402B
:100890003C4344600C79E443A4070AD0C4684FEA9F
:1008A000420C06FA0CF7BC438F6807FA0CF7274393
:1008B000C7600C7904F00304022C12D1D40800EBB9
:1008C000840CDCF820405707FF0E09FA07F824EAE9
:1008D0000804D1F8108008FA07F848EA0408CCF8B0
:1008E000208004684FEA420C06FA0CF7BC430F79EB
:1008F00007F0030707FA0CF7274307604C6814F466
:10090000403F70D03C4C276847F4804727602468FC
:1009100022F0030704F480440094384C07EB040CE5
:10092000DCF8084897074FEA177809FA08F7BC433C
:10093000334FB84202D1002724E054E0314FB8428F
:1009400001D101271EE0304FB84201D1022719E042
:100950002E4FB84201D1032714E02D4FB84201D1E8
:1009600004270FE02B4FB84201D105270AE02A4F98
:10097000B84201D1062705E0284FB84201D1072728
:1009800000E0082707FA08F72743CCF80878DAF8D8
:1009900000405746D1F804C09C435FEACC2C00D5F8
:1009A0001C433C60DBF800405F46D1F804C09C4328
:1009B0005FEA8C2C00D51C433C60DEF80040774693
:1009C000D1F804C09C435FEA8C3C00D51C433C60DA
:1009D000084F083F3C68D1F804C09C435FEACC3C18
:1009E00000D51C433C60521C102AFFF42FAFBDE819
:1009F000F88F0000083C01404438024000300140BC
:100A0000000002400004024000080240000C0240C6
:100A1000001002400014024000180240001C024076
:100A20000AB1816170470904FBE700000148806852
:100A300070470000040000200248816802781144D9
:100A400081607047040000200B4810B5016841F434
:100A500000710160016841F480610160016841F446
:100A600080710160032000F06FF80F2000F006F89D
:100A700000F024F8002010BD003C024070B50D4D80
:100A800004464FF47A712878B1FBF0F00A490968FE
:100A9000B1FBF0F000F0BBFC48B9102C07D20022EB
:100AA0002146501E00F030F800206C6070BD01201F
:100AB00070BD000004000020100000200A4808B5A6
:100AC000016841F480410160006800F480400090BA
:100AD0000548001F016841F080510160006800F086
:100AE0008050009008BD000044380240002809DB17
:100AF00000F01F02012191404009800000F1E02038
:100B0000C0F8001170470000F0B40E4B1B680C4693
:100B1000C3F30223C3F10705042D00D90425191DD1
:100B2000072901D2002300E0DB1E012606FA05F1A9
:100B3000491E214099409E40761E16403143F0BC2C
:100B400000F021BE0CED00E0064900F00702086845
:100B50004FF6FF03184040EA0220034A10430860A2
:100B6000704700000CED00E00000FA052DE9F047A9
:100B70000E46050065D0DFF81481D8F80000F7B202
:100B800000F00700B04207D288F80070D8F80000E3
:100B900000F00700B04254D128683D4C810712D5BF
:100BA000400703D5206840F4E05020602878000713
:100BB00003D5206840F4604020602068A96820F0D8
:100BC000F000084320602878C0072DD030496868BD
:100BD0000839012812D0022813D0032811D009683F
:100BE000890700292DDA216821F0030101432160E2
:100BF000FFF71CFF814641F2883A0EE0096889033D
:100C0000EFE709688901ECE7FFF710FFA0EB0901A6
:100C1000514502D90320BDE8F0872068696800F0DB
:100C20000C00B0EB810FEFD1D8F80010404601F076
:100C30000701B14207D90770006800F00700B04211
:100C400001D00120E7E72878400705D52068E9684A
:100C500020F4E050084320602878000706D520687B
:100C6000296920F4604040EAC100206000F018F8D3
:100C70002168084AC1F30311515CC8400649086065
:100C800006480068FFF7FAFE0020C4E7003C024077
:100C900008380240DE19000810000020080000207B
:100CA000154810B5006810F00C02144813D0144910
:100CB000042A0FD0082A0ED10F4C241F2268236863
:100CC00002F03F025B0207D52068C0F38810A0FB4A
:100CD000010106E0084610BD2168C1F38811A1FB9F
:100CE00000010023FFF7C0FA2168C1F30141491C4C
:100CF0004900B0FBF1F010BD083802400024F400B8
:100D0000001BB7002DE9F84F04006ED02078DFF803
:100D10004C93C007A9F104054AD009F10400016809
:100D2000C1F38101012908D00068C0F381000228C5
:100D30000AD1D9F80000400206D52868800337D5CB
:100D400060680028E1D033E06068B0F5803F10D0E3
:100D5000B0F5A02F286810D020F4803028602868D3
:100D600020F4802028606068A8B1FFF75FFE064687
:100D70000DE0286840F48030F4E740F480202860DB
:100D8000F7E700BFFFF752FE801B642873D828687E
:100D90008003F7D50CE0FFF749FE064605E000BFEB
:100DA000FFF744FE801B6428F0D828688003F7D43E
:100DB0002078DFF8AC8280074FF0000A3ED5A748C4
:100DC000001D016811F00C0F08D00068C0F381000D
:100DD00002280BD1D9F80000400207D42868800708
:100DE00016D5E068012800D112E033E1E068B8B11F
:100DF0000120C8F80000FFF719FE064605E000BF15
:100E0000FFF714FE801B0228C0D828688007F7D59A
:100E10002868216920F0F80040EAC10028600DE050
:100E2000C8F800A0FFF702FE064604E0FFF7FEFD4B
:100E3000801B02281FD828688007F7D42078000775
:100E400022D5864F87486169703771B101210160F1
:100E5000FFF7ECFD064604E0FFF7E8FD801B0228E3
:100E600009D838688007F7D50EE0C0F800A0FFF772
:100E7000DDFD064605E082E0FFF7D8FD801B022875
:100E80007DD838688007F7D42078400768D5DFF828
:100E9000CCB100270BF13C0BDBF80000C0000BD4F9
:100EA000DBF8001041F08051CBF80010DBF80000B7
:100EB000012700F0805000906B4E3068C00510D4C0
:100EC000306840F480703060FFF7B0FD009005E0BE
:100ED000FFF7ACFD0099401A022850D83068C005D1
:100EE000F6D55E4EA0686C3601280FD00528306814
:100EF00010D020F001003060306820F00400306035
:100F0000A068B8B1FFF792FD00900FE0306840F0A4
:100F10000100F4E740F004003060F7E7FFF786FDDA
:100F20000099411A41F28830814266D830688007C2
:100F3000F4D50EE0FFF77AFD009007E0FFF776FDAD
:100F40000099411A41F28830814256D830688007B2
:100F5000F4D42FB1DBF8001021F08051CBF8001051
:100F6000A069C8B33D49091D0968C1F3810102297F
:100F70004AD00228504607D0C8F8600000E03CE0A4
:100F8000FFF754FD04463BE04746C8F86000FFF712
:100F90004DFD064605E000BFFFF748FD801B022817
:100FA0002BD828688001F7D4D4E907010843A16A47
:100FB0002E4A490802EB0141626A41EA8211084364
:100FC00094F82C1040EA0161C9F80010012038663D
:100FD000FFF72CFD044606E03EE000BFFFF726FDCC
:100FE000001B022809D828688001F7D534E000BF2B
:100FF000FFF71CFD001B022802D90320BDE8F88F73
:1010000028688001F4D427E00128F7D0D9F800003F
:10101000E26900F4800191421CD1226A00F03F0194
:10102000914217D147F6C071626A0140B1EB821F4D
:1010300010D1A26A4FF0FF3300F4403103EB5202AB
:10104000B1EB024F06D194F82C1000F07060B0EBB9
:10105000016F01D00120D1E70020CFE70438024022
:1010600000004742800E4742007000400000FFFF32
:1010700070B5040009D0606A002540B12561656142
:10108000A56294F8510040B10CE0012070BD606889
:10109000B0F5827FF4D0E561F2E784F85050204645
:1010A00000F044F8022084F851002068016821F023
:1010B00040010160A088218900F4827001F404419C
:1010C0000843A18901F400610843217C01F0020179
:1010D0000843217D01F001010843218B01F40071D7
:1010E0000843217F01F03801084394F8201001F0F3
:1010F00080010843218D01F40051084321680860F4
:10110000A069042101EA104094F8241001F01001B4
:101110000843216848602068C16921F40061C16109
:101120006565012084F85100002070BD2DE9F04173
:1011300086B0064614216846FFF70DF93549306838
:10114000884264D134480024016841F48051016030
:10115000006800F4805005902F481438016841F071
:1011600002010160016801F002010591016841F08E
:10117000010101600068022500F0010005901820BF
:10118000CDE9000502AA03274FF0050882E8900187
:1011900069462248FFF74CFB8020CDE9000502AAF2
:1011A000694682E890011E48FFF742FB1E4D1D482C
:1011B0007F062860C5E901744FF48068C5E90348DB
:1011C0006C617812AC61C5E9074028466C62FFF794
:1011D000A5FA08B1FFF79FFAF564AE63124D114806
:1011E00060351830E5E802074020A5E81101C0028B
:1011F00045F81449AC61C5E907400B486C626030A2
:10120000FFF78CFA08B1FFF786FAB564AE6306B053
:10121000BDE8F08100300140443802400004024043
:101220000000024040640240B00000202DE9F84F69
:10123000044690F8500000270A9E1D4692468B46B1
:101240004FF0010901280ED0012084F85000FFF76B
:10125000EDFB804694F85100616801280CD0B1F58F
:10126000827F07D102E00220BDE8F88FA16809B9AA
:10127000042801D00227C2E0BBF1000F27D0BAF149
:10128000000F24D01DB394F85100042802D005208B
:1012900084F8510000206065C4F838A0E587A58770
:1012A000C4F830B0E586A5862064606420680168D3
:1012B000490603D4016841F040010160E068B0F5DF
:1012C000006F606805D0E8B3012D46D07FE00127AC
:1012D00095E008B1012D39D1206B21680088C860E4
:1012E000206B801C2063E08E401EE0862EE020688C
:1012F000816889070FD5E18E69B1B9F1010F0AD173
:10130000216B0988C160206B801C2063E08E401E29
:10131000E0864FF0000920688168C9070CD0E18F92
:1013200051B1C068A16B0880A06B801CA063E08FE6
:10133000401EE0874FF00109FFF778FBA0EB0800A3
:10134000B04200E009E001D3701C50D1E08E0028CB
:10135000CDD1E08F0028CAD13FE0206B2168007812
:101360000873206B401C2063E08E401EE0862EE058
:101370002068816889070FD5E18E69B1B9F1010F45
:101380000AD1216B09780173206B401C2063E08E29
:10139000401EE0864FF0000920688168C9070CD024
:1013A000E18F51B1C068A16B0870A06B401CA063B5
:1013B000E08F401EE0874FF00109FFF737FBA0EBFD
:1013C0000800B04202D3701C01D010E07EB1E08E64
:1013D0000028CDD1E08F0028CAD1424631462046B0
:1013E00000F0F2F828B101272020606507E003270C
:1013F00005E0A06818B92068C168806800900120E5
:1014000084F85100002084F8500038462CE710B5CD
:10141000401EB0F1807F01D3012010BD4FF0E024C9
:1014200060610F21601700F0AEF90020A061072075
:101430002061002010BDFEE70D4808B5016841F4A9
:10144000800101600068002200F480000090052106
:101450003A20FFF759FB3A20FFF748FB00221146DC
:101460003B20FFF751FBBDE808403B20FFF73EBBA8
:1014700030380240F0B587B014216846FEF76BFFA4
:101480003948016841F002010160016801F0020180
:101490000591016841F040010160016801F04001DF
:1014A0000591016841F001010160016801F001014D
:1014B0000591016841F020010160016801F02001FF
:1014C0000591016841F004010160016801F0040127
:1014D0000591016841F080010160016801F080011F
:1014E0000591016841F01001016000681F4E00F095
:1014F00010000590012210213046FFF791FA1C4F91
:10150000012211463846FFF78BFA01241020CDE95D
:101510000004022569463046CDE90245FFF788F907
:10152000302000904FF40410CDE9010469461148C1
:10153000FFF77EF90094694638460194CDE90245EB
:10154000FFF776F9002211460A20FFF7DDFA0A209C
:10155000FFF7CCFA002211461720FFF7D5FA172023
:10156000FFF7C4FA07B0F0BD303802400000024077
:101570000004024000080240104810B50E49016006
:101580004FF482714160002102228160C0E90312A0
:1015900001224261520282613822C0E90721416280
:1015A00081620A21C162FFF763FD002803D0BDE814
:1015B0001040FFF7B0B810BD0030014058000020C7
:1015C000FEE7FEE77047000038B504461248134BAB
:1015D0000068B0FBF3F04FF47A73584300906068F2
:1015E000B0F5827F0DD10B4600920022802120466B
:1015F00000F016F870B1606D40F0200060650320C7
:1016000038BD009830B1401E009020688068C0430B
:101610000006F6D5002038BD1000002000366E010F
:101620002DE9F8431E46914688460446089DFFF77B
:10163000FDF9401B351AFFF7F9F907462548006800
:10164000C0F3CB30684338E0701C37D0FFF7EEF9B9
:10165000C01BA84203D215B1009860B32CE02068EB
:10166000416821F0E00141606068B0F5827F0BD1F4
:10167000A068B0F5004F02D0B0F5806F04D12068AB
:10168000016821F040010160A06AB0F5005F09D156
:101690002068016821F4005101602068016841F46C
:1016A00000510160012084F85100002084F85000AE
:1016B0000320BDE8F8830025401E00902068816863
:1016C00038EA010004D000214945BDD10020F0E7EF
:1016D0000121F9E7100000207047FFF7ADB90000C5
:1016E00030B593B030216846FEF735FE14210CA8C2
:1016F000FEF731FE1D480025016841F08051016070
:10170000006800F0805011901948016841F4804150
:1017100001600068022400F48040119001200090D4
:10172000000401908001CDE9064006200890A82021
:10173000CDE9090404200B906846FFF7E3FA08B1ED
:1017400072B6FEE70CA90F2081E831004FF4A050DB
:101750000F904FF48050109005210CA8FFF706FA67
:10176000002801D072B6FEE713B030BD4038024009
:10177000007000400248016841F470010160704748
:1017800088ED00E0FEE70907090E002804DB00F100
:10179000E02080F80014704700F00F0000F1E02016
:1017A00080F8141D704700002DE9F0410024FEF779
:1017B0003FFE8020FEF750FF5520FEF74DFF5520DD
:1017C000FEF74AFFFEF72CFE9620FEF758FEFEF7C6
:1017D0002FFE8020FEF740FF5520FEF73DFF5520ED
:1017E000FEF73AFFFEF71CFE9620FEF748FEFEF7D6
:1017F0001FFEB6217E20FEF73FFFFEF711FE5020B0
:10180000FEF731FEFEF714FE8020FEF725FF55207F
:10181000FEF722FF5520FEF71FFFFEF701FE962080
:10182000FEF72DFEFEF704FE8020FEF715FF552083
:10183000FEF712FF5520FEF70FFF0546FEF7F0FDFD
:101840009620FEF71CFE1E2D02D0FF20BDE8F08181
:10185000184D00BFFEF7ECFD04EB44067719A85DB8
:101860007978FEF709FFFEF7DBFD9620FEF707FE0D
:10187000FEF7DEFDA85D40F08000FEF7EDFE55208E
:10188000FEF7EAFE5520FEF7E7FE0646FEF7C8FD26
:101890009620FEF7F4FD7878B04204D004EB4400C3
:1018A00028448078D2E7641CE4B2062CD2D300200E
:1018B000CCE700001C000020F8B500248DF80040A3
:1018C000FEF7C8FD69460020FEF7BAFEFEF7BAFD36
:1018D0009620FEF7D4FDFEF7BDFD69460020FEF719
:1018E000AFFEFEF7AFFD9620FEF7C9FDFEF7B2FD95
:1018F000B6211420FEF7C0FEFEF7A4FD5020FEF72F
:10190000B2FDFEF7A7FD69460020FEF799FEFEF73F
:1019100099FD9620FEF7B3FDFEF79CFD6946002079
:10192000FEF78EFEFEF78EFD9620FEF7A8FD9DF8D1
:1019300000000F2801D0FF20F8BD154DFEF78AFDED
:1019400004EB44067719A85D7978FEF795FEFEF75B
:1019500079FD9620FEF793FDFEF77CFDA85D6946B4
:10196000FEF76EFEFEF76EFD9620FEF788FD787896
:101970009DF80010884204D004EB4400284480788D
:10198000F8BD641CE4B2062CD8D30020F8BD0000DA
:101990002E000020FFF758F8FFF7A2FEFFF76AFDC0
:1019A000FFF74AFDFFF7E8FDFEF780FD0028FBD1B9
:1019B0000549044AA1F10C00FEF784FD0A20FEF758
:1019C00017FFF5E7000000204C0000204FF04070AA
:1019D000E1EE100A7047000610160006101600000F
:1019E00000000000000001020304060708090000CF
:1019F000101A00080000002040000000C401000888
:101A0000501A00084000002090070000E001000884
:101A100000000000010000001000000000000000B5
:101A20000024F400E7416B3A58A08B3A7D04017C16
:101A3000000240AB034100055308065804070F009D
:101A40000810820911000A15800B16000C18010DF0
:040000050800018965
:00000001FF
